:020000040800F2
:100000007806002039040008410400084304000871
:1000100045040008470400084904000800000000E7
:100020000000000000000000000000004B04000879
:100030004D040008000000004F04000851040008AF
:100040005304000853040008530400085304000834
:100050005304000853040008530400085304000824
:100060005304000853040008530400085304000814
:100070005304000853040008530400085304000804
:1000800053040008530400085304000853040008F4
:1000900053040008530400085304000853040008E4
:1000A00053040008530400085304000853040008D4
:1000B00053040008530400085304000853040008C4
:1000C00053040008530400085304000853040008B4
:1000D00053040008530400085304000853040008A4
:1000E0005304000853040008530400085304000894
:1000F0005304000853040008530400085304000884
:100100005304000853040008530400085304000873
:100110005304000853040008530400085304000863
:100120005304000853040008530400085304000853
:100130005304000853040008530400085304000843
:100140005304000853040008530400085304000833
:100150005304000853040008530400085304000823
:100160005304000853040008530400085304000813
:100170005304000853040008530400085304000803
:10018000530400085304000800F002F800F03CF8A3
:100190000AA090E8000C82448344AAF10107DA45E2
:1001A00001D100F031F8AFF2090EBAE80F0013F0F8
:1001B000010F18BFFB1A43F001031847A004000009
:1001C000C0040000103A24BF78C878C1FAD852079A
:1001D00024BF30C830C144BF04680C6070470000C1
:1001E0000023002400250026103A28BF78C1FBD840
:1001F000520728BF30C148BF0B6070471FB500F0E1
:1002000028FA1FBD10B510BD00F0ECF91146FFF73C
:10021000F5FF00F074F900F00AFA03B4FFF7F2FFFB
:1002200003BC00F00FFA00000CB500200190009014
:100230007648006840F480307449086000BF734815
:10024000006800F4003000900198401C0190009874
:1002500018B90198B0F5A04FF1D16C48006800F4CE
:10026000003010B10120009001E0002000900098C3
:10027000012846D165484030006840F0805063490D
:10028000403108606248006840F4404060490860BE
:100290005E48083000685D4908310860084600681B
:1002A00040F4004008600846006840F4A050086030
:1002B0005848091F0860081F006840F08070091F37
:1002C000086000BF5148006800F000700028F9D0B5
:1002D00040F20570504908604C480830006820F032
:1002E00003004A49083108600846006840F00200EF
:1002F000086000BF45480830006800F00C0008287E
:10030000F8D10CBD10B54548006840F47000434971
:1003100008603E48006840F001003C490860002049
:100320003A4908310860394800683D490840374972
:1003300008603C48091D0860081F006820F4802000
:10034000091F0860002031490C310860FFF76CFF7D
:100350004FF0006031498039086010BD70B5002051
:100360000022022300240221284D08352D6805F0C3
:100370000C0020B1042806D0082834D107E02A4D0B
:100380002A4E356033E02A4D284E35602FE01F4D50
:100390002D1D2D68C5F380541C4D2D1D2D6805F0B5
:1003A0003F0154B1224DB5FBF1F5184E361D3668AC
:1003B000C6F3881605FB06F209E01B4DB5FBF1F507
:1003C000124E361D3668C6F3881605FB06F20F4D31
:1003D0002D1D2D68C5F301456D1C6B00B2FBF3F5B7
:1003E000124E356003E0104D104E356000BF00BF67
:1003F000064D08352D68C5F303150E4E705D0B4D87
:100400002D68C540094E356070BD000000380240BF
:100410000070004008544007003C024088ED00E0B6
:10042000FFFFF6FE103000240024F400000000203E
:1004300040787D01040000200948804709480047B2
:10044000FEE7FEE7FEE7FEE7FEE7FEE7FEE7FEE784
:10045000FEE7FEE704480549054A064B70470000E1
:1004600005030008890100087800002078060020B4
:1004700078020020780200203748006840F0200011
:10048000354908603548006820F440203349086049
:100490000846006840F4802008600846006820F4A0
:1004A000401008600846006840F480100860081D8D
:1004B000006820F40070091D08600846006820F4F8
:1004C00080600860081D006820F44020091D086055
:1004D000081D006820F44020091D08601F481430E2
:1004E000006840F4C0601D491431086070474FF047
:1004F000807000BF0100A0F10100FBD17047FFF741
:10050000BBFF00F02DF825E000F03CF80446FF2C7E
:1005100020D012481430006800F4007068B10F4811
:100520001430006820F400700C491431086008464B
:10053000006820F4806008600CE00848143000680F
:1005400040F400700549143108600846006840F422
:1005500080600860D8E70000303802400014024094
:100560001548006840F0010013490860134800680E
:1005700020F00300114908600846C06820F003001D
:10058000C860704710B5FF240C48006900F00100F6
:1005900078B10A2000F014F80848006900F0010062
:1005A00038B1012400BF0548006900F001000028AF
:1005B000F9D1204610BD0000303802400000024052
:1005C00010B50021014607E040F6921200BF13006B
:1005D000A2F10102FBD1491E0029F5DC10BD7047D4
:1005E00070477047754600F029F8AE460500694629
:1005F000534620F00700854618B020B5FFF72AFFC4
:10060000BDE820404FF000064FF000074FF0000813
:100610004FF0000B21F00701AC46ACE8C009ACE894
:10062000C009ACE8C009ACE8C0098D467047044673
:10063000AFF300802046FFF7F0FD00000048704750
:100640001400002001491820ABBEFEE7260002007E
:1006500070474FF04070E1EE100A70477C060008CA
:100660000000002014000000C401000890060008EB
:100670001400002064060000E0010008007A030A6C
:100680000000000000000000010203040607080942
:040000050800018965
:00000001FF
