:020000040800F2
:1000000020040020AD030008B5030008B703000872
:10001000B9030008BB030008BD030008000000008E
:10002000000000000000000000000000BF03000806
:10003000C103000800000000C3030008C503000856
:10004000C7030008C7030008C7030008C703000868
:10005000C7030008C7030008C7030008C703000858
:10006000C7030008C7030008C7030008C703000848
:10007000C7030008C7030008C7030008C703000838
:10008000C7030008C7030008C7030008C703000828
:10009000C7030008C7030008C7030008C703000818
:1000A000C7030008C7030008C7030008C703000808
:1000B000C7030008C7030008C7030008C7030008F8
:1000C000C7030008C7030008C7030008C7030008E8
:1000D000C7030008C7030008C7030008C7030008D8
:1000E000C7030008C7030008C7030008C7030008C8
:1000F000C7030008C7030008C7030008C7030008B8
:10010000C7030008C7030008C7030008C7030008A7
:10011000C7030008C7030008C7030008C703000897
:10012000C7030008C7030008C7030008C703000887
:10013000C7030008C7030008C7030008C703000877
:10014000C7030008C7030008C7030008C703000867
:10015000C7030008C7030008C7030008C703000857
:10016000C7030008C7030008C7030008C703000847
:10017000C7030008C7030008C7030008C703000837
:10018000C7030008C7030008DFF80CD000F0F4FA3A
:1001900000480047D1030008200400200CB50020CF
:1001A000019000907648006840F4803074490860FF
:1001B00000BF7348006800F4003000900198401CB4
:1001C0000190009818B90198B0F5A04FF1D16C4892
:1001D000006800F4003010B10120009001E0002020
:1001E00000900098012846D165484030006840F0F2
:1001F00080506349403108606248006840F44040E4
:10020000604908605E48083000685D490831086050
:100210000846006840F4004008600846006840F462
:10022000A05008605848091F0860081F006840F087
:100230008070091F086000BF5148006800F000701E
:100240000028F9D040F20570504908604C48083049
:10025000006820F003004A49083108600846006839
:1002600040F00200086000BF45480830006800F018
:100270000C000828F8D10CBD10B54548006840F4C2
:100280007000434908603E48006840F001003C4966
:10029000086000203A4908310860394800683D4943
:1002A0000840374908603C48091D0860081F00687D
:1002B00020F48020091F0860002031490C310860BB
:1002C000FFF76CFF4FF0006031498039086010BDC6
:1002D00070B500200022022300240221284D083599
:1002E0002D6805F00C0020B1042806D0082834D170
:1002F00007E02A4D2A4E356033E02A4D284E3560FE
:100300002FE01F4D2D1D2D68C5F380541C4D2D1D54
:100310002D6805F03F0154B1224DB5FBF1F5184EA3
:10032000361D3668C6F3881605FB06F209E01B4D3C
:10033000B5FBF1F5124E361D3668C6F3881605FB7F
:1003400006F20F4D2D1D2D68C5F301456D1C6B0088
:10035000B2FBF3F5124E356003E0104D104E3560E0
:1003600000BF00BF064D08352D68C5F303150E4EBE
:10037000705D0B4D2D68C540094E356070BD0000A5
:10038000003802400070004008544007003C024022
:1003900088ED00E0FFFFF6FE103000240024F4009A
:1003A0000000002040787D010400002006488047BE
:1003B00006480047FEE7FEE7FEE7FEE7FEE7FEE74A
:1003C000FEE7FEE7FEE7FEE7790200088901000884
:1003D000002400F0D1F800F019F84FF4E13000F0FB
:1003E0003BF908E0641C214603A000F0D7F942F273
:1003F000107000F0B1F8F5E768656C6C6F20776FEE
:10040000726C640D0A693D25640D0A004848006855
:1004100040F00100464908604648006820F00300AB
:10042000444908600846C06820F00300C86040489E
:10043000006840F010003E4908603F48006820F422
:100440007C703D4908600846C06820F47C70C86034
:100450007047FF2039490978394A117039490978BC
:10046000364A117038490978491C374A11703749A2
:100470000978012945D13649096801290BD0354948
:10048000096841B13349091F096821B13149083967
:100490000968002935D12E49096819B10121294A75
:1004A000117015E02B49096819B90221254A11700C
:1004B0000EE02849091F096819B90321214A117062
:1004C00006E024490839096811B904211D4A117050
:1004D0001D49097803292AD100211B4A11701849A6
:1004E0000978184A1278914221D114490978154A9D
:1004F000127891421BD1134908780021134A1170D8
:1005000015E01349096891B91249096801290ED10A
:100510001049091F0968012909D10E4908390968DC
:10052000012904D1094A11700021074A117070474E
:100530003038024000000240001002401700002046
:1005400018000020160000201500002014000020D4
:10055000000240421002424210B50021014607E06D
:1005600040F6921200BF1300A2F10102FBD1491E16
:100570000029F5DC10BD00003548006840F020007F
:10058000334908603348006820F44020314908604E
:100590000846006840F480200860081D006820F4C8
:1005A0000070091D0860081D006820F44020091D26
:1005B0000860081D006820F44020091D08602548D7
:1005C000006820F44010234908600846006840F4A1
:1005D00080100860081D006820F48060091D086014
:1005E000081D006820F44010091D0860081D0068FF
:1005F00020F44010091D08601648006820F44030BF
:10060000144908600846006840F480300860081DFE
:10061000006820F48070091D0860081D006820F43F
:100620004030091D0860081D006820F44030091D95
:10063000086008481430006840F4C060054914316F
:1006400008600846006820F4807008607047000069
:1006500030380240001402403849096841F0010175
:10066000364A11603649096821F47011344A116024
:100670001146096841F4201111601146496821F4BE
:10068000007151601146896821F440219160114642
:10069000C96821F47011D1601146496A21F47F6262
:1006A00027494A62496A41F4EE6225494A62234970
:1006B0001431096841F01001204A143211602149B7
:1006C000B1FBF0F1204A11811146898921F40041E2
:1006D00091811146898921F480519181114689893E
:1006E00041F0080191811146898941F0040191810D
:1006F0001146098A21F4405111821146898941F439
:100700000051918170470AE000BF0F49098801F04C
:1007100080010029F9D010F8011B0B4A9180017863
:100720000029F1D1704700BF074A128802F0800209
:10073000002AF9D0044B98807047000030380240FE
:100740000000024000BD01050010014030B50B461D
:10075000014600202022012409E021FA02F59D42F1
:1007600005D303FA02F5491B04FA02F52844151EC5
:10077000A2F10102F1DC30BD064C074D06E0E06855
:1007800040F0010394E8070098471034AC42F6D3D8
:10079000FFF7FEFC30090008500900080FB4054BB4
:1007A00010B503A9044A029800F018F810BC5DF8CF
:1007B00014FB0000270700081C00002002E008C806
:1007C000121F08C1002AFAD170477047002001E0CB
:1007D00001C1121F002AFBD1704700002DE9FF4F15
:1007E00089B09B460446002506E025280BD05A46D2
:1007F0000B999047641C6D1C20780028F5D10DB032
:100800002846BDE8F08F0027B8460122474900E09E
:10081000074314F8013F203B02FA03F00842F7D1E6
:1008200020782E2819D114F8010F47F004072A2840
:100830000ED06FF02F022078A0F1300109290CD8DA
:1008400008EB880102EB410100EB0108641CF2E7B0
:100850000A98641C50F8048B0A9020780028CED0A7
:10086000642808D0692806D075281ED05A460B99EE
:1008700090476D1C58E00A994FF00A0901C90A9186
:10088000002802DA40422D2102E0390504D52B214F
:100890008DF82010012103E0F90704D02021F7E7AB
:1008A0008A4608AE0DE00021FAE70A994FF00A09DE
:1008B00001C90A91F7E74946FFF748FF303106F8CA
:1008C000011D0028F7D1ADEB060000F120097807E3
:1008D00001D44FF00108C84502DDA8EB090000E093
:1008E00000208046002706E008A85A46C05D0B9904
:1008F00090476D1C7F1C5745F6DB04E030205A46BC
:100900000B9990476D1CB8F10001A8F10108F5DCC6
:1009100005E016F8010B5A460B9990476D1CB9F18A
:100920000001A9F10109F4DC641C65E70928010054
:10093000500900080000002020000000BC0700084B
:10094000700900082000002000040000CC07000807
:10095000007A030A00000000000000000102030406
:100960000607080901000000000000000000000068
:040000050800018965
:00000001FF
