:020000040800F2
:100000008006002039040008410400084304000869
:1000100045040008470400084904000800000000E7
:100020000000000000000000000000004B04000879
:100030004D040008000000004F04000851040008AF
:100040005304000853040008530400085304000834
:100050005304000853040008530400085304000824
:100060005304000853040008530400085304000814
:100070005304000853040008530400085304000804
:1000800053040008530400085304000853040008F4
:1000900053040008530400085304000853040008E4
:1000A00053040008530400085304000853040008D4
:1000B00053040008530400085304000853040008C4
:1000C00053040008530400085304000853040008B4
:1000D00053040008530400085304000853040008A4
:1000E0005304000853040008530400085304000894
:1000F0005304000853040008530400085304000884
:100100005304000853040008530400085304000873
:100110005304000853040008530400085304000863
:100120005304000853040008530400085304000853
:100130005304000853040008530400085304000843
:100140005304000853040008530400085304000833
:100150005304000853040008530400085304000823
:100160005304000853040008530400085304000813
:100170005304000853040008530400085304000803
:10018000530400085304000800F002F800F03CF8A3
:100190000AA090E8000C82448344AAF10107DA45E2
:1001A00001D100F031F8AFF2090EBAE80F0013F0F8
:1001B000010F18BFFB1A43F001031847E8050000C0
:1001C00008060000103A24BF78C878C1FAD8520750
:1001D00024BF30C830C144BF04680C6070470000C1
:1001E0000023002400250026103A28BF78C1FBD840
:1001F000520728BF30C148BF0B6070471FB500F0E1
:10020000CCFA1FBD10B510BD00F090FA1146FFF7F3
:10021000F5FF00F09CF900F0AEFA03B4FFF7F2FF2F
:1002200003BC00F0B3FA00000CB500200190009070
:100230007648006840F480307449086000BF734815
:10024000006800F4003000900198401C0190009874
:1002500018B90198B0F5A04FF1D16C48006800F4CE
:10026000003010B10120009001E0002000900098C3
:10027000012846D165484030006840F0805063490D
:10028000403108606248006840F4404060490860BE
:100290005E48083000685D4908310860084600681B
:1002A00040F4004008600846006840F4A050086030
:1002B0005848091F0860081F006840F08070091F37
:1002C000086000BF5148006800F000700028F9D0B5
:1002D00040F20570504908604C480830006820F032
:1002E00003004A49083108600846006840F00200EF
:1002F000086000BF45480830006800F00C0008287E
:10030000F8D10CBD10B54548006840F47000434971
:1003100008603E48006840F001003C490860002049
:100320003A4908310860394800683D490840374972
:1003300008603C48091D0860081F006820F4802000
:10034000091F0860002031490C310860FFF76CFF7D
:100350004FF0006031498039086010BD70B5002051
:100360000022022300240221284D08352D6805F0C3
:100370000C0020B1042806D0082834D107E02A4D0B
:100380002A4E356033E02A4D284E35602FE01F4D50
:100390002D1D2D68C5F380541C4D2D1D2D6805F0B5
:1003A0003F0154B1224DB5FBF1F5184E361D3668AC
:1003B000C6F3881605FB06F209E01B4DB5FBF1F507
:1003C000124E361D3668C6F3881605FB06F20F4D31
:1003D0002D1D2D68C5F301456D1C6B00B2FBF3F5B7
:1003E000124E356003E0104D104E356000BF00BF67
:1003F000064D08352D68C5F303150E4E705D0B4D87
:100400002D68C540094E356070BD000000380240BF
:100410000070004008544007003C024088ED00E0B6
:10042000FFFFF6FE103000240024F400000000203E
:1004300040787D01040000200948804709480047B2
:10044000FEE7FEE7FEE7FEE7FEE7FEE7FEE7FEE784
:10045000FEE7FEE704480549054A064B70470000E1
:1004600005030008890100088000002080060020A4
:1004700080020020800200204D48006840F02000EB
:100480004B4908604B48006820F440204949086007
:100490000846006840F480200860081D006820F4C9
:1004A0000070091D0860081D006820F44020091D27
:1004B0000860081D006820F44020091D08603D48C0
:1004C000006820F440103B4908600846006840F48A
:1004D00080100860081D006820F48060091D086015
:1004E000081D006820F44010091D0860081D006800
:1004F00020F44010091D08602E48006820F44030A8
:100500002C4908600846006840F480300860081DE7
:10051000006820F48070091D0860081D006820F440
:100520004030091D0860081D006820F44030091D96
:10053000086020481430006840F4C0601D49143140
:1005400008600846006820F4807008607047FFF774
:1005500093FF00F033F829E000F053F80446012C33
:1005600008D11548006808B9012000E000201249B0
:10057000086018E0022C0AD10F48001D006808B975
:10058000012000E000200C49091D08600BE0032C4D
:1005900009D10948001F006808B9012000E00020C7
:1005A0000549091F0860052000F0AEF8D4E70000F7
:1005B0003038024000140240A48242424848006899
:1005C00040F00100464908604648006820F00300FA
:1005D000444908600846C06820F00300C8604048ED
:1005E000006840F010003E4908603F48006820F471
:1005F0007C703D4908600846C06820F47C70C86083
:100600007047FF2039490978394A1170394909780A
:10061000364A117038490978491C374A11703749F0
:100620000978012945D13649096801290BD0354996
:10063000096841B13349091F096821B131490839B5
:100640000968002935D12E49096819B10121294AC3
:10065000117015E02B49096819B90221254A11705A
:100660000EE02849091F096819B90321214A1170B0
:1006700006E024490839096811B904211D4A11709E
:100680001D49097803292AD100211B4A11701849F4
:100690000978184A1278914221D114490978154AEB
:1006A000127891421BD1134908780021134A117026
:1006B00015E01349096891B91249096801290ED159
:1006C0001049091F0968012909D10E49083909682B
:1006D000012904D1094A11700021074A117070479D
:1006E0003038024000000240001002401700002095
:1006F0001800002016000020150000201400002023
:10070000000240421002424210B50021014607E0BB
:1007100040F6921200BF1300A2F10102FBD1491E64
:100720000029F5DC10BD704770477047754600F032
:1007300029F8AE4605006946534620F00700854675
:1007400018B020B5FFF786FEBDE820404FF0000648
:100750004FF000074FF000084FF0000B21F00701A9
:10076000AC46ACE8C009ACE8C009ACE8C009ACE8EC
:10077000C0098D4670470446AFF300802046FFF75E
:100780004CFD0000004870471C0000200149182063
:10079000ABBEFEE72600020070474FF04070E1EE6E
:1007A000100A7047C4070008000000201C00000069
:1007B000C4010008E00700081C00002064060000D7
:1007C000E0010008007A030A0000000000000000B9
:1007D00001020304060708090100000000000000F0
:040000050800018965
:00000001FF
