:020000040800F2
:1000000000170020390400084104000843040008D8
:1000100045040008470400084904000800000000E7
:100020000000000000000000000000004B04000879
:100030004D040008000000004F04000851040008AF
:100040005304000853040008530400085122000818
:100050005304000853040008270A0008530400084A
:10006000490A000853040008530400085304000818
:100070005304000853040008530400085304000804
:1000800053040008530400085304000853040008F4
:1000900053040008530400085304000853040008E4
:1000A00053040008530400085304000853040008D4
:1000B00053040008530400085304000853040008C4
:1000C00053040008530400085304000853040008B4
:1000D000530400081F0800085304000853040008D4
:1000E00053040008272200085304000853040008A2
:1000F0005304000853040008530400085304000884
:100100005304000853040008530400085304000873
:100110005304000853040008530400085304000863
:100120005304000853040008530400085304000853
:100130005304000853040008530400085304000843
:100140005304000853040008530400085304000833
:100150005304000853040008530400085304000823
:100160005304000853040008530400085304000813
:100170005304000853040008530400085304000803
:10018000530400085304000800F002F800F03CF8A3
:100190000AA090E8000C82448344AAF10107DA45E2
:1001A00001D100F031F8AFF2090EBAE80F0013F0F8
:1001B000010F18BFFB1A43F001031847582800002D
:1001C00078280000103A24BF78C878C1FAD85207BE
:1001D00024BF30C830C144BF04680C6070470000C1
:1001E0000023002400250026103A28BF78C1FBD840
:1001F000520728BF30C148BF0B6070471FB502F0DF
:10020000E9F81FBD10B510BD02F0B2F81146FFF7B6
:10021000F5FF00F031F902F0D0F803B4FFF7F2FF78
:1002200003BC00F051FB00000CB5002001900090D1
:100230007648006840F480307449086000BF734815
:10024000006800F4003000900198401C0190009874
:1002500018B90198B0F5A04FF1D16C48006800F4CE
:10026000003010B10120009001E0002000900098C3
:10027000012846D165484030006840F0805063490D
:10028000403108606248006840F4404060490860BE
:100290005E48083000685D4908310860084600681B
:1002A00040F4004008600846006840F4A050086030
:1002B0005848091F0860081F006840F08070091F37
:1002C000086000BF5148006800F000700028F9D0B5
:1002D00040F20570504908604C480830006820F032
:1002E00003004A49083108600846006840F00200EF
:1002F000086000BF45480830006800F00C0008287E
:10030000F8D10CBD10B54548006840F47000434971
:1003100008603E48006840F001003C490860002049
:100320003A4908310860394800683D490840374972
:1003300008603C48091D0860081F006820F4802000
:10034000091F0860002031490C310860FFF76CFF7D
:100350004FF0006031498039086010BD70B5002051
:100360000022022300240221284D08352D6805F0C3
:100370000C0020B1042806D0082834D107E02A4D0B
:100380002A4E356033E02A4D284E35602FE01F4D50
:100390002D1D2D68C5F380541C4D2D1D2D6805F0B5
:1003A0003F0154B1224DB5FBF1F5184E361D3668AC
:1003B000C6F3881605FB06F209E01B4DB5FBF1F507
:1003C000124E361D3668C6F3881605FB06F20F4D31
:1003D0002D1D2D68C5F301456D1C6B00B2FBF3F5B7
:1003E000124E356003E0104D104E356000BF00BF67
:1003F000064D08352D68C5F303150E4E705D0B4D87
:100400002D68C540094E356070BD000000380240BF
:100410000070004008544007003C024088ED00E0B6
:10042000FFFFF6FE103000240024F400000000203E
:1004300040787D01040000200948804709480047B2
:10044000FEE7FEE7FEE7FEE7FEE7FEE7FEE7FEE784
:10045000FEE7FEE704480549054A064B70470000E1
:100460000503000889010008001100200017002082
:100470000013002000130020052002461E4B1968BF
:100480004FF6FF0319401D4B0B4343EA02211A4B61
:10049000196000BF00F03AF800F070F84FF4165001
:1004A00000F016F900F038FC00F048FD01F0D1F83A
:1004B00001F049FD0021042001F056FE0020104902
:1004C00008604FF4FA7000F007FB01200D49C1F8F5
:1004D000A4027D21072001F027FF0BE04FF4FA7002
:1004E00000F0FAFA4FF4C87000F0F6FA4AF6AA20C3
:1004F00005490860F2E700000CED00E00000FA0595
:10050000A482424200804242003000401748006806
:1005100040F02000154908601548006820F470106C
:10052000134908600846006840F4A0100860081DE0
:10053000006820F4C060091D0860081D006820F4F0
:100540007010091D08600846006840F4201008601B
:10055000081D006820F47010091D0860012005497D
:1005600008600549C1F8A802704700003038024011
:1005700000140240A4824242008042424A4800687D
:1005800040F01100484908604848006820F47C7039
:10059000464908600846C06820F47C70C86044483A
:1005A000006820F00300424908600846C06820F057
:1005B0000300C86070474FF4A04000BF011EA0F1C7
:1005C0000100FBD17047FF203A4909783A4A11707F
:1005D0003A490978374A117039490978491C384A2B
:1005E000117038490978012945D13749096859B14D
:1005F0003549091D096839B133490831096819B10C
:1006000032490968012936D12F49096819B90221EF
:100610002A4A117016E02C49091D096819B90121EF
:10062000264A11700EE028490831096819B90021DD
:10063000224A117006E025490968012902D10321E7
:100640001E4A11701E49097803292BD100211C4A2A
:1006500011701A490978184A1278914222D1174923
:100660000978144A127891421CD114490878002163
:10067000144A117016E014490968012912D112496F
:10068000091D096801290DD10F490831096801299F
:1006900008D10E49096829B901210A4A11700021BF
:1006A000074A1170704700003038024000100240C5
:1006B0000000024016000020170000201500002056
:1006C00018000020140000200802424200024042AC
:1006D0002DE9F04304467D48006840F001007B4965
:1006E00008607B48006820F470107949086008466B
:1006F000006840F4201008600846406820F400704C
:1007000048600846806820F4402088600846406AB7
:1007100020F47F616E484162406A40F4EE616C48AB
:1007200041626A481430006840F010006749143193
:1007300008606848B0FBF4F0674908810846808982
:1007400020F4004088810846808920F48050888108
:100750000846808940F0080088810846808940F07A
:10076000040088810846008A20F440500882252031
:10077000052203252E461346C3F10708B8F1040FDE
:1007800002D94FF0040801E0C3F10708C44603F1A1
:100790000408B8F1070F02D24FF0000801E0A3F1FE
:1007A000030847464FF0010808FA0CF8A8F10108C1
:1007B00008EA050808FA07F84FF0010909FA07F9ED
:1007C000A9F1010909EA060948EA090100BF002860
:1007D00007DA0A07150E414A00F00F031B1FD55414
:1007E00003E00A07130E3E4A135400BF252000F011
:1007F0001F02012191404209920002F1E022C2F859
:10080000001100BF3448808940F0200032498881BF
:100810000846808940F400508881BDE8F083314962
:10082000097831BB2C49098801F0200109B32A4914
:100830008988C8B20A2813D12B490978491E2B4A46
:10084000515C0D290CD1002227490978491E274BFC
:100850005A540121234A11700021234A11700AE0E1
:1008600021490A780978491C1F4B19701F4988547F
:1008700001E01949898870470AE000BF16490988D4
:1008800001F080010029F9D00178134A9180401CC1
:1008900001780029F1D1704700BF0F4A128802F099
:1008A0008002002AF9D00C4B9880704701464FF027
:1008B000FF30704700BF0849098801F08001002916
:1008C000F9D0054A9080704700BFFEE730380240FB
:1008D0000000024000BD01050010014018ED00E0DD
:1008E00000E400E01C0000201D0000203C0000206F
:1008F00010B5002807DA0A07140E624A00F00F0349
:100900001B1FD45403E00A07130E5F4A135410BD93
:10091000F0B503460C4603F00701C1F107000428B7
:1009200001D9042001E0C1F107000646081D07288F
:1009300001D2002000E0C81E05460120B040401E44
:100940002040A8400127AF407F1E17403843F0BD2C
:1009500010B54E48006840F480404C4908604C484F
:10096000006820F00F004A4908604A48006840F0DB
:10097000010048490860081D006820F00100091DB9
:100980000860081D006840F00100091D0860081D8E
:10099000006820F00100091D0860012211460520B1
:1009A000FFF7B6FF044621460620FFF7A1FF062009
:1009B00000F05DF810BD10B53448006840F4804088
:1009C000324908603248006820F47060304908609D
:1009D0000846006840F4806008602E48006840F0D7
:1009E00004002C490860081D006820F00400091D5F
:1009F0000860081D006820F00400091D0860081D3B
:100A0000006840F00400091D08600122114605201D
:100A1000FFF77EFF044621460820FFF769FF082004
:100A200000F025F810BD1B481430006840F00100AC
:100A30001849143108601848006808B9012000E01E
:100A4000002015490860704712481430006840F0D3
:100A500004001049143108600F48001F006808B9ED
:100A6000012000E000200C49091F0860704700F0D9
:100A70001F02012191404209920002F1E022C2F8D6
:100A80000011704718ED00E000E400E04438024037
:100A900008380140003C0140A8824242A82141435D
:100AA000C9084FF0E02251610021916111460969A6
:100AB00041F00101116100BF4FF0E021096901F42B
:100AC00080310029F8D04FF0E021096921F00101BF
:100AD0004FF0E02211617047A82141434FF47A7230
:100AE0005143C9084FF0E022516100219161114644
:100AF000096941F00101116100BF4FF0E02109696E
:100B000001F480310029F8D04FF0E021096921F08B
:100B100001014FF0E0221161704700007A4800683F
:100B200040F00200784908607848006820F470209E
:100B3000764908600846006840F4A0200860081D57
:100B4000006840F44070091D0860081D006820F42A
:100B50007020091D08600846006840F4A020086065
:100B6000081D006820F47020091D086001206849F4
:100B700008606849C1F8A0027047642000BF011EE8
:100B8000A0F10100FBD1704700B500206049091FAA
:100B9000086001205F49C1F8A4025D49091F08608F
:100BA000FFF7EBFF00205B49C1F8A402FFF7E5FF68
:100BB00000205749091F086000BD00B500205449B6
:100BC000091F08605349C1F8A40201205049091FB8
:100BD0000860FFF7D2FF01204E49C1F8A402FFF7D9
:100BE000CCFFFFF7CAFF00BD10B5034600241BE091
:100BF00000204749091F086003F0800018B1012058
:100C0000091D086002E0002041490860FFF7B5FFB8
:100C1000FFF7B3FF5806030E01203D49091F086086
:100C2000FFF7ABFF601CC4B2082CE1DB00203849A1
:100C3000091F086010BD10B500203549091F086064
:100C400001203449C1F8A402002417E000203049F3
:100C5000091F0860FFF791FFFFF78FFF01202D4963
:100C6000C1F8A0025806030E29488038006808B170
:100C700043F00103FFF781FF601CC4B2082CE5DBE1
:100C800000202349091F0860184610BD00B5002048
:100C90001F49091F086001201E49C1F8A402FFF77F
:100CA0006CFFFFF76AFF01201A49C1F8A00208464D
:100CB000D0F8240208B1012300E00023FFF75DFF14
:100CC00000201349091F0860184600BD00B50346FF
:100CD00000200F49091F08601BB10120091D086091
:100CE00002E000200A490860FFF747FFFFF745FFD1
:100CF00001200749091F0860FFF73FFF0020054951
:100D0000C1F8A00200BD00003038024000040240DB
:100D1000A48240420080404210B5FFF7FFFE10BDA4
:100D200070B504460D46FFF72FFFA020FFF75CFFCC
:100D3000FFF7ACFF012803D1FFF73FFF012070BD93
:100D4000E0B2FFF751FFFFF7A1FF012803D1FFF742
:100D500034FF0220F3E72846FFF746FFFFF796FF30
:100D6000012803D1FFF729FF0320E8E7FFF725FF5C
:100D70000520FFF7B1FE0020E1E770B504460D46FF
:100D8000FFF702FFA020FFF72FFFFFF77FFF0128EB
:100D900003D1FFF712FF042070BDE0B2FFF724FF7C
:100DA000FFF774FF012803D1FFF707FF0520F3E7E2
:100DB000FFF7EAFEA120FFF717FFFFF767FF012803
:100DC00003D1FFF7FAFE0620E6E7FFF734FF2870AD
:100DD0000120FFF77BFFFFF7F0FE0020DCE770B596
:100DE00006460C461546FFF7CFFEA020FFF7FCFE97
:100DF000FFF74CFF012803D1FFF7DFFE042070BD91
:100E0000F0B2FFF7F1FEFFF741FF012803D1FFF732
:100E1000D4FE0520F3E7FFF7B7FEA120FFF7E4FEBD
:100E2000FFF734FF012803D1FFF7C7FE0620E6E7EE
:100E30000DE0FFF700FF04F8010B681E85B21DB935
:100E40000120FFF743FF03E00020FFF73FFFF0E73B
:100E500000BFFFF7B2FE0020D1E72DE9F0410446C4
:100E60000F46154646E02046E11704EB5171C910C4
:100E7000A4EBC101C1F108018EB2AE4200DB2E46E7
:100E8000FFF782FEA020FFF7AFFEFFF7FFFE01286D
:100E900004D1FFF792FE0120BDE8F081E0B2FFF738
:100EA000A3FEFFF7F3FE012803D1FFF786FE022021
:100EB000F2E74FF000080FE017F8010BFFF794FE80
:100EC000FFF7E4FE012803D1FFF777FE0320E3E7F5
:100ED00008F101001FFA80F8B045EDDBFFF76DFE69
:100EE0000520FFF7F9FDAE4200D104E0A81B85B252
:100EF000A01984B2B7E700BF0020CDE710B50024E9
:100F00000020D2490860902000F01BFA002000F079
:100F100018FA002000F015FA002000F012FAFF2065
:100F200000F00FFA44EA0024FF2000F00AFA04431C
:100F30000120C749C1F8B802204610BD10B5C54808
:100F4000006840F00200C3490860C348006820F010
:100F50004050C14908600846006840F08050086071
:100F6000081D006820F48040091D0860081D006805
:100F700040F04050091D0860081D006820F04050F6
:100F8000091D086000F06EF9FFF7B8FFB34908804B
:100F900010BD10B500240020AC490860052000F009
:100FA000D0F9FF2000F0CDF904460120A849C1F88E
:100FB000B802204610BD10B504460020A3490860C1
:100FC000012000F0BEF9204600F0BBF90120A04945
:100FD000C1F8B80210BD10B500209C490860062079
:100FE00000F0AFF901209A49C1F8B80210BD10B560
:100FF000002096490860042000F0A3F901209449DC
:10100000C1F8B80210BD2DE9F04106460C4617465E
:1010100000208E490860032000F093F9C4F30740D4
:1010200000F08FF9C4F3072000F08BF9E0B200F074
:1010300088F9002505E0FF2000F083F97055681C51
:1010400085B2BD42F7DB012080490860BDE8F08130
:1010500010B500BFFFF79DFF00F001000028F9D197
:1010600010BD2DE9F04106460C461746FFF7B3FFC9
:10107000002076490860022000F063F9C4F30740BD
:1010800000F05FF9C4F3072000F05BF9E0B200F074
:1010900058F9002504E0705D00F053F9681C85B232
:1010A000BD42F8DB012069490860FFF7D1FFBDE8C8
:1010B000F0812DE9F04107460E461446F0B2C0F526
:1010C0008075AC4200DC254612E02A46314638469F
:1010D000FFF7C7FFAC4200D10BE02F442E44601B4A
:1010E00084B2B4F5807F02DD4FF4807500E02546C0
:1010F000EBE700BFBDE8F08110B504462403FFF71D
:101100006AFFFFF7A5FF002050490860202000F08B
:1011100018F9C4F3074000F014F9C4F3072000F0F5
:1011200010F9E0B200F00DF901204949C1F8B80208
:10113000FFF78EFF10BD2DE9F05F81460F46164682
:10114000DFF81CB14FEA1738C7F30B0ACAF5805411
:10115000A64200DC344644E04FEA08314FF48052A6
:101160005846FFF750FF002508E00AEB05001BF882
:101170000000FF2800D003E0681C85B2A542F4DB24
:1011800000BFA54216DA4046FFF7B6FF002507E08C
:1011900019F8050005EB0A010BF80100681C85B27F
:1011A000A542F5DB4FEA08314FF480525846FFF76D
:1011B00080FF04E0224639464846FFF77AFFA64200
:1011C00000D10FE008F101084FF0000AA1442744C4
:1011D000301B86B2B6F5805F02DD4FF4805400E02C
:1011E0003446B9E700BFBDE8F09F10B5FFF7F3FE46
:1011F000FFF72EFF002015490860C72000F0A1F876
:1012000001201349C1F8B802FFF722FF10BD10B545
:1012100000200E490860B92000F093F801200C4925
:10122000C1F8B8020320FFF739FC10BD10B500204B
:1012300006490860AB2000F084F801200449C1F899
:10124000B8020320FFF72AFC10BD0000B88240421C
:101250000080404230380240000402402400002058
:10126000A00000204148006840F002003F490860AB
:101270003F48006820F44C603D490860084600681B
:1012800040F408600860081D006820F02800091D6F
:101290000860081D006840F44C60091D0860081DC6
:1012A000006820F44C60091D08603148006820F493
:1012B00040702F4908600846006840F400700860DC
:1012C0002B48203000682B4908402949203108600C
:1012D000084600682849084325492031086023480A
:1012E0001430006840F480502049143108602348CD
:1012F000008820F44040214908800846008820F4F6
:10130000006008800846008840F440700880084665
:10131000008820F0800008800846008840F0040023
:1013200008800846008820F003000880084680886E
:1013300020F0100088800846008840F040000880B7
:101340007047014600BF0D48008900F002000028E8
:10135000F9D00A48818100BF0848008900F00100E7
:101360000028F9D005488089C0B270473038024063
:1013700000040240FF0F00FF005055000030014004
:101380000121FE4A11600021FD4AC2F8B012FD4A57
:10139000116000F0010121B10121FA4A24321160EB
:1013A00003E00021F74A2432116000F0020121B16C
:1013B0000121F44A2832116003E00021F14A283269
:1013C000116000F0040121B10121EE4A143A1160CC
:1013D00003E00021EB4A143A116000F0080121B14A
:1013E0000121E84A103A116003E00021E54A103A71
:1013F000116000F0100119B10121E34A116002E00F
:101400000021E14A116000F0200121B10121DE4AF2
:10141000121D116003E00021DB4A121D116000F073
:10142000400121B10121D84A0832116003E00021B6
:10143000D54A0832116000F0800121B10121D24A61
:101440000C32116003E00021CF4A0C32116000F42D
:10145000807121B10121CC4A1032116003E00021DA
:10146000C94A1032116000F4007121B10121C64A4D
:101470001432116003E00021C34A1432116000F4F9
:10148000806121B10121C04A1832116003E00021BE
:10149000BD4A1832116000F4006121B10121BA4A3D
:1014A0001C32116003E00021B74A1C32116000F4C5
:1014B000805121B10121B44A2032116003E00021A2
:1014C000B14A2032116000F4005121B10121AD4A2E
:1014D0000C32116003E00021AA4A0C32116000F4C2
:1014E000804121B10121A74A1032116003E000219F
:1014F000A44A1032116000F4004121B10121A14A37
:101500001432116003E000219E4A1432116001215F
:101510009C4A11609A4AC2F8B01270470021974A5B
:101520001160974AC2F8B012964A116000F00101AA
:1015300021B10121934A2432116003E00021914A34
:101540002432116000F0020121B101218D4A2832BC
:10155000116003E000218B4A2832116000F0040181
:1015600021B10121874A143A116003E00021854A24
:10157000143A116000F0080121B10121814A103AAA
:10158000116003E000217F4A103A116000F0100161
:1015900019B101217C4A116002E000217A4A1160F0
:1015A00000F0200121B10121774A121D116003E0F2
:1015B0000021754A121D116000F0400121B1012186
:1015C000714A0832116003E000216F4A083211604D
:1015D00000F0800121B101216B4A0C32116003E05F
:1015E0000021694A0C3211600121664A1160644A87
:1015F000C2F8B012704710B503464FF496342A2053
:10160000FFF78CFF0020FFF7BBFE0020FFF7B8FEBE
:101610000020FFF7B5FEEF20FFF7B2FE2B20FFF70B
:101620007DFF0020FFF7ACFE0020FFF7A9FE0120A0
:10163000FFF7A6FE3F20FFF7A3FE2C20FFF76EFF6B
:1016400002E01846FFF79CFE201EA4F10104F8D129
:1016500010BD10B54D48006840F07A004B49086055
:101660004B4800684B4908404949086008460068F3
:101670004949084346490860081D00684CF2337127
:1016800088434349091D0860081D00684149C94352
:1016900008433F490831086040480068C0F30D0026
:1016A0003E490860084600683D4908433B490860D8
:1016B000084640684FF680718843384948600846BC
:1016C000806838490843354988603748006820F009
:1016D0004070354908600846006840F08070086036
:1016E000081D006820F48050091D0860081D00686E
:1016F00040F04070091D08602C48006820F04070E0
:101700002A4908600846006840F080700860081D9B
:10171000006820F48050091D0860081D006840F032
:101720004070091D08602248006820F040402049B0
:1017300008600846006840F080400860081D0068A6
:1017400020F40040091D0860081D006840F040407A
:10175000091D086000201749086001200849C1F8E8
:10176000B0020849091F08601349C1F894027820A3
:10177000FFF7B2F9CF20FFF7D1FE1FE0B08242425F
:1017800000004342948241429C024242303802406F
:10179000000C0240F0F0C00F05051550001002408B
:1017A0000040555500C0FFFF0014024000180240E1
:1017B00000040240BC824042008041420020FFF70A
:1017C000DFFD8320FFF7DCFD3020FFF7D9FDED20A2
:1017D000FFF7A4FE6420FFF7D3FD0320FFF7D0FD41
:1017E0001220FFF7CDFD8120FFF7CAFDE820FFF7AB
:1017F00095FE8520FFF7C4FD0120FFF7C1FD79208C
:10180000FFF7BEFDCB20FFF789FE3920FFF7B8FDBB
:101810002C20FFF7B5FD0020FFF7B2FD3420FFF7C5
:10182000AFFD0220FFF7ACFDF720FFF777FE202089
:10183000FFF7A6FDEA20FFF771FE0020FFF7A0FDED
:101840000020FFF79DFDC020FFF768FE1D20FFF779
:1018500097FDC120FFF762FE1120FFF791FDC52023
:10186000FFF75CFE3320FFF78BFD3420FFF788FD88
:10187000C720FFF753FEBE20FFF782FD3620FFF79B
:101880004DFE0820FFF77CFDB120FFF747FE00204A
:10189000FFF776FD1B20FFF773FDB620FFF73EFE36
:1018A0000A20FFF76DFDA220FFF76AFDF220FFF787
:1018B00035FE0020FFF764FD2620FFF72FFE0120F4
:1018C000FFF75EFDE020FFF729FE0F20FFF758FD30
:1018D0002320FFF755FD1F20FFF752FD0920FFF7DA
:1018E0004FFD0F20FFF74CFD0820FFF749FD4B206F
:1018F000FFF746FDF220FFF743FD3820FFF740FDDC
:101900000920FFF73DFD1320FFF73AFD0320FFF705
:1019100037FD1220FFF734FD0720FFF731FD0420CB
:10192000FFF72EFDE120FFF7F9FD0020FFF728FD6E
:101930001D20FFF725FD2020FFF722FD0220FFF7E5
:101940001FFD1120FFF71CFD0720FFF719FD3420B4
:10195000FFF716FD8120FFF713FD4620FFF710FD6E
:101960000620FFF70DFD0E20FFF70AFD0C20FFF704
:1019700007FD3220FFF704FD3820FFF701FD0F209F
:10198000FFF7FEFC3A20FFF7C9FD5520FFF7F8FCF2
:101990001120FFF7C3FD7820FFF79EF82920FFF7FD
:1019A000BDFD4FF6FF70FFF726FE0120C649086017
:1019B00010BD30B503460C4615462A20FFF7AEFD94
:1019C0001812FFF7DDFCD8B2FFF7DAFC2B20FFF787
:1019D000A5FD2012FFF7D4FCE0B2FFF7D1FC2C20CC
:1019E000FFF79CFD2846FFF7CBFC30BD2DE9F04307
:1019F00006460F469046002445460320A0EB4809C2
:101A00004CE07A1B91B2321990B2B04A1288FFF7BB
:101A1000D0FF3A1B91B2721990B2AC4A1288FFF70C
:101A2000C8FF3A1991B2721990B2A84A1288FFF70A
:101A3000C0FF7A1991B2321990B2A44A1288FFF706
:101A4000B8FF7A1991B2321B90B2A04A1288FFF700
:101A5000B0FF3A1991B2721B90B29C4A1288FFF7FC
:101A6000A8FF7A1B91B2321B90B2984A1288FFF7F6
:101A7000A0FF3A1B91B2721B90B2944A1288FFF7F2
:101A800098FF641CB9F1000F03DAA000801D8144A7
:101A900004E0601B80000A3081446D1EAC42B0DD62
:101AA000BDE8F0832DE9FF4F84B081468A460020CF
:101AB000039002900698A0EB09050798A0EB0A0690
:101AC000CDF80490CDF800A0002D01DD012705E040
:101AD0000DB9002702E04FF0FF376D42002E02DD06
:101AE0004FF0010806E016B94FF0000802E04FF091
:101AF000FF387642B54201DD2C4600E034464FF017
:101B0000000B23E0009A91B2019A90B26F4A1288BA
:101B1000FFF74FFF03982844039002983044029047
:101B20000398A04205DD0398001B039001983844F8
:101B300001900298A04205DD0298001B02900098D7
:101B4000404400900BF101001FFA80FB601C8345AC
:101B5000D8DD08B0BDE8F08FF0B504460D46164656
:101B60001F462B46324629462046FFF79BFF3B4641
:101B7000224629462046FFF795FF3B463246394626
:101B80002046FFF78FFF3B46324629463046FFF797
:101B900089FFF0BD2DE9F04F04460F4615469846E3
:101BA000A346A5F12000C5B200262CE0484800EB72
:101BB000051010F806A04FF000091CE00AF08000A4
:101BC00030B14248028839462046FFF7F2FE08E06D
:101BD000B8F1000F05D13F48028839462046FFF78B
:101BE000E8FE601C84B24FF6FF7000EA4A0A09F171
:101BF00001001FFA80F9B9F1080FDFDB5C46781CA1
:101C000087B2701C86B2102ED0DBBDE8F08FF0B525
:101C100005460E4614461F460CE014F8012B3B46C1
:101C200031462846FFF7B6FF05F1080085B2E72DDB
:101C300000DD02E020780028EFD100BFF0BD2DE9E3
:101C4000F04F05460E4617469846AB46002436E050
:101C50005D46102C02DB05F1080085B2102C02D184
:101C6000A6F1100086B21C4800EB471010F804A043
:101C70004FF000091CE00AF0800030B113480288E0
:101C800031462846FFF795FE08E0B8F1000F05D170
:101C90001048028831462846FFF78BFE681C85B243
:101CA0004FF6FF7000EA4A0A09F101001FFA80F9B5
:101CB000B9F1080FDFDB701C86B2601C84B2202CE7
:101CC000C6DBBDE8F08F0000BC8240422600002049
:101CD000DE23000828000020CE29000810B50028C7
:101CE00007DA0A07140EFE4A00F00F031B1FD45434
:101CF00003E00A07130EFB4A135410BDF0B5034668
:101D00000C4603F00701C1F10700042801D90420A3
:101D100001E0C1F107000646081D072801D2002096
:101D200000E0C81E05460120B040401E2040A840EB
:101D30000127AF407F1E17403843F0BDEA49CA2053
:101D4000EA4A106053201060E8481838006820F014
:101D50002000E64A183A106000E0491E31B1E3481D
:101D60001838006800F020000028F6D009B90120DA
:101D70007047FF20DD4A10600020F9E74FF4803102
:101D8000DA481838006800F0400008B100207047B9
:101D9000D6481838006840F08000D44A183A1060DD
:101DA00000E0491E31B1D1481838006800F0400009
:101DB0000028F6D009B90120E9E70020E7E7002272
:101DC000CA4B2C3303EB800211607047014600229E
:101DD000C6482C3000EB8102106870470146002293
:101DE00004E0501CC2B2A1F10A00C1B20A29F8DA1B
:101DF000100741EA10607047014600BF081100EB70
:101E00008000420001F00F001044C0B270472DE97D
:101E1000F04106460C4615460027CA20B349086023
:101E200053200860FFF7AAFF10B10120BDE8F08140
:101E30003046FFF7D3FF000403F0010140EA815868
:101E40002046FFF7CBFF48EA00282846FFF7C6FFE9
:101E500048EA0007A54824380760A44818380068F5
:101E600020F08000A149183908600020DEE72DE944
:101E7000F04106460C4615460027CA209B490860DB
:101E800053200860FFF77AFF10B10120BDE8F08110
:101E90003046FFF7A3FF000403F0070140EA413892
:101EA0002046FFF79BFF48EA00282846FFF796FFE9
:101EB00048EA00078D48203807608C4818380068C9
:101EC00020F080008949183908600020DEE710B54D
:101ED0000346002400BFFFF731FF0028FBD18348F1
:101EE00024380468C4F30540FFF786FF1870C4F374
:101EF0000620FFF781FF587004F07F00FFF77CFF9A
:101F00009870C4F38750D87010BD10B503460024F4
:101F100000BFFFF713FF0028FBD174482038046886
:101F2000C4F30740FFF768FF1871C4F30420FFF7FC
:101F300063FF587104F03F00FFF75EFF9871C4F330
:101F40004230D87110BD10B541F6FF746848006882
:101F500040F08050664908606648006840F4807030
:101F60006449086061482C30006845F2511188428C
:101F70005AD05F483030006840F001005C49303191
:101F8000086004E0601E84B20520FEF7A5FD34B1B0
:101F900057483030006800F002000028F2D00CB939
:101FA000012010BD52483030006840F48070504924
:101FB000303108600846006840F400400860CA20DC
:101FC0004A49086053200860FFF7D8FE08B1022094
:101FD000E7E7FF204549143908600846006840F4E7
:101FE000FE00086041481C38006820F040003F496E
:101FF0001C390860081D006820F08000091D086079
:10200000FF203A4908600023382231210F20FFF7D2
:10201000FEFE07230B2209211020FFF728FF45F2BF
:10202000511032492C3108600020BAE72DE9F04107
:1020300007460C4615461E46CA202C490860532008
:1020400008602A481C38006820F4807027491C3931
:10205000086000BF25481838006800F0010000281B
:10206000F8D000202149083908600846006840F08F
:10207000804008600846006808603846FFF7AEFEFA
:102080001A490839096841EA0060184908390860A6
:102090002046FFF7A3FE15490839096841EA0040C8
:1020A0001249083908602846FFF798FE0F49083999
:1020B000096841EA00200D49083908603046FFF7F9
:1020C0008DFE0A490839096808430849083908603B
:1020D000002006492031086004481C3800680BE0E5
:1020E00018ED00E000E400E0FFFF0F0024280040AE
:1020F000403802400070004040F48050864908603B
:102100000846006840F480700860FF2082491C3156
:1021100008608148001D006820F480707E49091D18
:1021200008604FF400307D4908607C48143800682E
:1021300040F4003079491439086078480C38006858
:1021400040F4003075490C39086002221146052020
:10215000FFF7D4FD804641462920FFF7BFFD292027
:1021600000F0CFF8BDE8F08170B504460D46CA20F6
:1021700069491C310860532008606748006820F4F2
:1021800080606549086000BF6348001D006800F07A
:1021900004000028F8D06048006820F007005E497D
:1021A00008600846006804F0070108435A490860BF
:1021B00059480C300560081D006820F48060091D36
:1021C0000860081F006840F48040091F08604FF451
:1021D00080005249086051481438006840F480007B
:1021E0004E49143908604D480C38006840F48000AE
:1021F0004A490C390860032202210520FFF77EFDC1
:10220000064631460320FFF769FD032000F079F808
:102210004148006840F480603F490860FF203E4923
:102220001C31086070BD3C48001D006800F48070DF
:1022300038B13948001D006820F480703649091D06
:1022400008603648006840F4003034490860704740
:1022500000B53248006840F48000304908602E48DC
:10226000001D006800F4806068B12B48001D006804
:1022700020F480602849091D08602948FFF727FEDF
:102280002748FFF742FE00BDF0B503460C46154651
:10229000642093FBF0F0C6B2642093FBF0F700FBE0
:1022A0001730C1B2132E02DD01F16400C1B208463D
:1022B000CF1701EB977701EBA707BAB2072092FB84
:1022C000F0F700FB172082B25719601EDFF854C0E8
:1022D0001CF80000384482B2CF1701EB9777BF108B
:1022E000A1EB87071FB9032C01DA501E82B2072029
:1022F00092FBF0F700FB172082B202B90722D0B29E
:10230000F0BD00F01F02012191404209920002F14C
:10231000E022C2F80011704708280040143C014038
:1023200034000020EE29000845F255520D4B1A608A
:1023300000BF0C4AD26802F00102002AF9D1094A12
:10234000506000BF074AD26802F00202022AF9D0A8
:10235000044A91604AF6AA22024B1A604CF6CC421B
:102360001A607047003000407047704770477047F0
:10237000754600F02BF8AE4605006946534620F03E
:102380000700854618B020B5FEF764F8BDE8204088
:102390004FF000064FF000074FF000084FF0000B21
:1023A00021F00701AC46ACE8C009ACE8C009ACE8D4
:1023B000C009ACE8C0098D46704710B50446AFF3BC
:1023C00000802046BDE81040FDF727BF0048704759
:1023D000A01000204FF04070E1EE100A704700009E
:1023E00000000000000000000000000000000000ED
:1023F000001010101010101000001818000000122B
:10240000362448000000000000000000000000002A
:1024100000242424FE484848FE48484800000000A4
:1024200010385454503018141454543810100000FC
:102430000044A4A8A8A8541A2A2A2A44000000008C
:102440000030484848506EA49488897600000060A7
:10245000100000000000000000000000000000026A
:1024600004080810101010101008080402000040A2
:10247000201010080808080808101020400000006C
:1024800000001010D63838D61010000000000000F0
:10249000000010101010FE101010100000000000BE
:1024A00000000000000000000000606020C000008C
:1024B0000000000000007F0000000000000000009D
:1024C000000000000000000000006060000000004C
:1024D00001020204040808101020204040000000FF
:1024E00000182442424242424242241800000000A6
:1024F00000107010101010101010107C0000000060
:10250000003C4242420404081020427E00000000C9
:10251000003C424204180402024244380000000019
:1025200000040C14242444447E04041E0000000013
:10253000007E4040405864020242443800000000DF
:10254000001C24404058644242422418000000000D
:10255000007E444408081010101010100000000005
:10256000003C4242422418244242423C0000000007
:10257000001824424242261A0202243800000000B9
:1025800000000000181800000000181800000000EB
:1025900000000000001000000000001010200000EB
:1025A000000204081020402010080402000000006F
:1025B00000000000FE000000FE000000000000001F
:1025C0000040201008040204081020400000000011
:1025D000003C424262020408080018180000000093
:1025E0000038445AAAAAAAAAB442443800000000FB
:1025F000001010182828243C444242E70000000044
:1026000000F8444444784442424244F80000000048
:10261000003E4242808080808042443800000000BA
:1026200000F8444242424242424244F80000000064
:1026300000FC424848784848404242FC0000000004
:1026400000FC424848784848404040E00000000014
:10265000003C44448080808E844444380000000064
:1026600000E7424242427E42424242E7000000000E
:10267000007C1010101010101010107C00000000D2
:10268000003E0808080808080808080888F0000044
:1026900000EE444850705048484444EE00000000AA
:1026A00000E0404040404040404042FE000000000A
:1026B00000EE6C6C6C6C5454545454D60000000002
:1026C00000C7626252524A4A4A4646E2000000008F
:1026D0000038448282828282828244380000000074
:1026E00000FC424242427C40404040E0000000008A
:1026F0000038448282828282B2CA4C3806000000CE
:1027000000FC4242427C4848444442E3000000004E
:10271000003E4242402018040242427C0000000079
:1027200000FE921010101010101010380000000061
:1027300000E74242424242424242423C0000000024
:1027400000E742424424242828181010000000000A
:1027500000D692929292AAAA6C44444400000000CF
:1027600000E7422424181818242442E7000000003F
:1027700000EE44442828101010101038000000000B
:10278000007E840408081020204242FC0000001E45
:102790001010101010101010101010101E0000005B
:1027A00040402020101010080804040402020078A1
:1027B0000808080808080808080808087800001C25
:1027C00022000000000000000000000000000000E7
:1027D00000000000000000000000000000FF00609A
:1027E0006020C000000000000000000000000000A9
:1027F00000000000003C421E2242423F0000000058
:1028000000C040404058644242426458000000000A
:1028100000000000001C22404040221C000000007C
:1028200000060202021E22424242261B0000000055
:1028300000000000003C427E4040423C000000009E
:10284000000F1110107E10101010107C00000000FE
:1028500000000000003E444438403C42423C00003E
:1028600000C04040405C6242424242E7000000003B
:1028700000303000007010101010107C00000000BC
:10288000000C0C00001C0404040404044478000040
:1028900000C04040404E4850684844EE00000000F0
:1028A00000701010101010101010107C00000000AC
:1028B0000000000000FE4949494949ED00000000C0
:1028C0000000000000DC6242424242E700000000DB
:1028D00000000000003C42424242423C0000000036
:1028E0000000000000D864424242447840E000000A
:1028F00000000000001E22424242221E0207000089
:102900000000000000EE3220202020F8000000002F
:1029100000000000003E42403C02427C00000000FB
:1029200000000010107C10101010100C00000000AF
:102930000000000000C642424242463B0000000048
:102940000000000000E742242428101000000000CE
:102950000000000000D79292AAAA444400000000A0
:1029600000000000006E24181818247600000000F3
:102970000000000000E742242428181010E00000A6
:1029800000000000007E44081010227E00000003BA
:1029900004040404040804040404040403000808F0
:1029A0000808080808080808080808080808006057
:1029B0001010101010081010101010106000304C83
:1029C00043000000000000000000000000000808B4
:1029D0000B101031305091101011111111114020B5
:1029E000FE0000FC0000FC0000FC0404FC040003EA
:1029F000030601040602050003050000536570206C
:102A0000313220323031360032323A32363A3238D0
:102A100000000000342A0008000000203C000000F4
:102A2000C4010008702A00083C000020C416000001
:102A3000E0010008007A030A000000000000000026
:102A4000010203040607080901000000000000005D
:102A5000000000000000000016EF0000FFFF000073
:102A6000FC290008082A00080000000000000000FF
:040000050800018965
:00000001FF
