:020000040800F2
:100000008006002039040008410400084304000869
:1000100045040008470400084904000800000000E7
:100020000000000000000000000000004B04000879
:100030004D040008000000004F04000851040008AF
:100040005304000853040008530400085304000834
:100050005304000853040008530400085304000824
:100060005304000853040008530400085304000814
:100070005304000853040008530400085304000804
:1000800053040008530400085304000853040008F4
:1000900053040008530400085304000853040008E4
:1000A00053040008530400085304000853040008D4
:1000B00053040008530400085304000853040008C4
:1000C00053040008530400085304000853040008B4
:1000D00053040008530400085304000853040008A4
:1000E0005304000853040008530400085304000894
:1000F0005304000853040008530400085304000884
:100100005304000853040008530400085304000873
:100110005304000853040008530400085304000863
:100120005304000853040008530400085304000853
:100130005304000853040008530400085304000843
:100140005304000853040008530400085304000833
:100150005304000853040008530400085304000823
:100160005304000853040008530400085304000813
:100170005304000853040008530400085304000803
:10018000530400085304000800F002F800F03CF8A3
:100190000AA090E8000C82448344AAF10107DA45E2
:1001A00001D100F031F8AFF2090EBAE80F0013F0F8
:1001B000010F18BFFB1A43F0010318470C0500009C
:1001C0002C050000103A24BF78C878C1FAD852072D
:1001D00024BF30C830C144BF04680C6070470000C1
:1001E0000023002400250026103A28BF78C1FBD840
:1001F000520728BF30C148BF0B6070471FB500F0E1
:100200005EFA1FBD10B510BD00F022FA1146FFF7CF
:10021000F5FF00F074F900F040FA03B4FFF7F2FFC5
:1002200003BC00F045FA00000CB5002001900090DE
:100230007648006840F480307449086000BF734815
:10024000006800F4003000900198401C0190009874
:1002500018B90198B0F5A04FF1D16C48006800F4CE
:10026000003010B10120009001E0002000900098C3
:10027000012846D165484030006840F0805063490D
:10028000403108606248006840F4404060490860BE
:100290005E48083000685D4908310860084600681B
:1002A00040F4004008600846006840F4A050086030
:1002B0005848091F0860081F006840F08070091F37
:1002C000086000BF5148006800F000700028F9D0B5
:1002D00040F20570504908604C480830006820F032
:1002E00003004A49083108600846006840F00200EF
:1002F000086000BF45480830006800F00C0008287E
:10030000F8D10CBD10B54548006840F47000434971
:1003100008603E48006840F001003C490860002049
:100320003A4908310860394800683D490840374972
:1003300008603C48091D0860081F006820F4802000
:10034000091F0860002031490C310860FFF76CFF7D
:100350004FF0006031498039086010BD70B5002051
:100360000022022300240221284D08352D6805F0C3
:100370000C0020B1042806D0082834D107E02A4D0B
:100380002A4E356033E02A4D284E35602FE01F4D50
:100390002D1D2D68C5F380541C4D2D1D2D6805F0B5
:1003A0003F0154B1224DB5FBF1F5184E361D3668AC
:1003B000C6F3881605FB06F209E01B4DB5FBF1F507
:1003C000124E361D3668C6F3881605FB06F20F4D31
:1003D0002D1D2D68C5F301456D1C6B00B2FBF3F5B7
:1003E000124E356003E0104D104E356000BF00BF67
:1003F000064D08352D68C5F303150E4E705D0B4D87
:100400002D68C540094E356070BD000000380240BF
:100410000070004008544007003C024088ED00E0B6
:10042000FFFFF6FE103000240024F400000000203E
:1004300040787D01040000200948804709480047B2
:10044000FEE7FEE7FEE7FEE7FEE7FEE7FEE7FEE784
:10045000FEE7FEE704480549054A064B70470000E1
:1004600005030008890100088000002080060020A4
:1004700080020020800200203848006840F0200000
:10048000364908603648006820F440203449086046
:100490000846006840F4802008600846006820F4A0
:1004A000401008600846006840F480100860081D8D
:1004B000006820F40070091D08600846006820F4F8
:1004C00080600860081D006820F44020091D086055
:1004D000081D006820F44020091D086020481430E1
:1004E000006840F4C0601E491431086070474FF046
:1004F000807000BF0100A0F10100FBD17047FFF741
:10050000BBFF00F02FF828E000F03EF80446FF2C77
:1005100020D013481430006800F4007068B110480F
:100520001430006820F400700D491431086008464A
:10053000006820F4806008600CE00948143000680E
:1005400040F400700649143108600846006840F421
:1005500080600860052000F069F8D5E73038024077
:10056000001402402A48006840F001002849086051
:100570002848006820F00300264908600846C06843
:1005800020F00300C8607047FF2023490978234A00
:10059000117023490978204A117022490978491CB1
:1005A000204A117020490978012925D11949096982
:1005B00001F0010101B31749096901F0010111B10D
:1005C0000121174A11701749097803291FD1002109
:1005D000144A117011490978114A1278914216D1C2
:1005E0000D4909780E4A1278914210D10C490878C9
:1005F00000210D4A11700AE00649096901F0010164
:1006000029B90121084A11700021064A117070476A
:10061000303802400000024017000020180000207F
:1006200016000020150000201400002010B5002145
:10063000014607E040F6921200BF1300A2F101024A
:10064000FBD1491E0029F5DC10BD7047704770478B
:10065000754600F029F8AE4605006946534620F07D
:100660000700854618B020B5FFF7F4FEBDE820402E
:100670004FF000064FF000074FF000084FF0000B5E
:1006800021F00701AC46ACE8C009ACE8C009ACE811
:10069000C009ACE8C0098D4670470446AFF300803E
:1006A0002046FFF7BAFD0000004870471C000020FC
:1006B00001491820ABBEFEE72600020070474FF04C
:1006C0004070E1EE100A7047E806000800000020C4
:1006D0001C000000C4010008040700081C000020E2
:1006E00064060000E0010008007A030A0000000030
:1006F00000000000010203040607080901000000D1
:0407000000000000F5
:040000050800018965
:00000001FF
