:020000040800F2
:10000000F0060020390400084104000843040008F9
:1000100045040008470400084904000800000000E7
:100020000000000000000000000000004B04000879
:100030004D040008000000004F04000851040008AF
:100040005304000853040008530400085304000834
:100050005304000853040008530400085304000824
:100060005304000853040008530400085304000814
:100070005304000853040008530400085304000804
:1000800053040008530400085304000853040008F4
:1000900053040008530400085304000853040008E4
:1000A00053040008530400085304000853040008D4
:1000B00053040008530400085304000853040008C4
:1000C00053040008530400085304000853040008B4
:1000D00053040008E508000853040008530400080E
:1000E0005304000853040008530400085304000894
:1000F0005304000853040008530400085304000884
:100100005304000853040008530400085304000873
:100110005304000853040008530400085304000863
:100120005304000853040008530400085304000853
:100130005304000853040008530400085304000843
:100140005304000853040008530400085304000833
:100150005304000853040008530400085304000823
:100160005304000853040008530400085304000813
:100170005304000853040008530400085304000803
:10018000530400085304000800F002F800F03CF8A3
:100190000AA090E8000C82448344AAF10107DA45E2
:1001A00001D100F031F8AFF2090EBAE80F0013F0F8
:1001B000010F18BFFB1A43F001031847B0080000F5
:1001C000D0080000103A24BF78C878C1FAD8520786
:1001D00024BF30C830C144BF04680C6070470000C1
:1001E0000023002400250026103A28BF78C1FBD840
:1001F000520728BF30C148BF0B6070471FB500F0E1
:1002000030FC1FBD10B510BD00F0F5FB1146FFF727
:10021000F5FF00F031F900F013FC03B4FFF7F2FF33
:1002200003BC00F017FC00000CB50020019000900A
:100230007648006840F480307449086000BF734815
:10024000006800F4003000900198401C0190009874
:1002500018B90198B0F5A04FF1D16C48006800F4CE
:10026000003010B10120009001E0002000900098C3
:10027000012846D165484030006840F0805063490D
:10028000403108606248006840F4404060490860BE
:100290005E48083000685D4908310860084600681B
:1002A00040F4004008600846006840F4A050086030
:1002B0005848091F0860081F006840F08070091F37
:1002C000086000BF5148006800F000700028F9D0B5
:1002D00040F20570504908604C480830006820F032
:1002E00003004A49083108600846006840F00200EF
:1002F000086000BF45480830006800F00C0008287E
:10030000F8D10CBD10B54548006840F47000434971
:1003100008603E48006840F001003C490860002049
:100320003A4908310860394800683D490840374972
:1003300008603C48091D0860081F006820F4802000
:10034000091F0860002031490C310860FFF76CFF7D
:100350004FF0006031498039086010BD70B5002051
:100360000022022300240221284D08352D6805F0C3
:100370000C0020B1042806D0082834D107E02A4D0B
:100380002A4E356033E02A4D284E35602FE01F4D50
:100390002D1D2D68C5F380541C4D2D1D2D6805F0B5
:1003A0003F0154B1224DB5FBF1F5184E361D3668AC
:1003B000C6F3881605FB06F209E01B4DB5FBF1F507
:1003C000124E361D3668C6F3881605FB06F20F4D31
:1003D0002D1D2D68C5F301456D1C6B00B2FBF3F5B7
:1003E000124E356003E0104D104E356000BF00BF67
:1003F000064D08352D68C5F303150E4E705D0B4D87
:100400002D68C540094E356070BD000000380240BF
:100410000070004008544007003C024088ED00E0B6
:10042000FFFFF6FE103000240024F400000000203E
:1004300040787D01040000200948804709480047B2
:10044000FEE7FEE7FEE7FEE7FEE7FEE7FEE7FEE784
:10045000FEE7FEE704480549054A064B70470000E1
:100460000503000889010008F0000020F0060020C4
:10047000F0020020F002002005200246244B1968FB
:100480004FF6FF031940234B0B4343EA0221204B55
:10049000196000BF00F00AF900F052F84FF4E130A3
:1004A00000F074F932E01C480078012813D11BA138
:1004B0001C4800F05DFA18B900201B49086007E0ED
:1004C0001AA1184800F054FA10B901201649086022
:1004D00000201149087017480078B8B11648006824
:1004E000401C154908600A2000F0D0F81248006846
:1004F00064280BD9012008490870002009490F4AD7
:10050000127888540D4908700A490870CBE700003A
:100510000CED00E00000FA051C0000206F70656E15
:100520000000000028000020A4824242636C6F7328
:100530006500000024000020200000201D00002095
:100540004848006840F00100464908604648006895
:1005500020F00300444908600846C06820F003000A
:10056000C8604048006840F010003E4908603F48BD
:10057000006820F47C703D4908600846C06820F49B
:100580007C70C8607047FF2039490978394A11707A
:1005900039490978364A117038490978491C374A6F
:1005A000117037490978012945D13649096801296F
:1005B0000BD03549096841B13349091F096821B198
:1005C000314908390968002935D12E49096819B11E
:1005D0000121294A117015E02B49096819B9022136
:1005E000254A11700EE02849091F096819B903212D
:1005F000214A117006E024490839096811B904211B
:100600001D4A11701D49097803292AD100211B4A6E
:10061000117018490978184A1278914221D1144969
:100620000978154A127891421BD1134908780021A4
:10063000134A117015E01349096891B91249096804
:1006400001290ED11049091F0968012909D10E4954
:1006500008390968012904D1094A11700021074AA3
:100660001170704730380240000002400010024014
:1006700017000020180000201600002015000020A0
:1006800014000020000240421002424210B5002136
:10069000014607E040F6921200BF1300A2F10102EA
:1006A000FBD1491E0029F5DC10BD0000354800686B
:1006B00040F02000334908603348006820F44020AF
:1006C000314908600846006840F480200860081D31
:1006D000006820F40070091D0860081D006820F4FF
:1006E0004020091D0860081D006820F44020091DF5
:1006F00008602548006820F4401023490860084637
:10070000006840F480100860081D006820F48060D4
:10071000091D0860081D006820F44010091D0860CC
:10072000081D006820F44010091D08601648006884
:1007300020F44030144908600846006840F48030D6
:100740000860081D006820F48070091D0860081DFD
:10075000006820F44030091D0860081D006820F47E
:100760004030091D086008481430006840F4C0603B
:100770000549143108600846006820F4807008605C
:100780007047000030380240001402402DE9F04369
:1007900004466D48006840F001006B4908606B48F2
:1007A000006820F47010694908600846006840F449
:1007B000201008600846406820F400704860084631
:1007C000806820F4402088600846C06820F47010DB
:1007D000C8600846406A20F47F615C484162406A14
:1007E00040F4EE615948416257481430006840F0C7
:1007F00010005549143108605548B0FBF4F05549D4
:1008000008810846808920F4004088810846808954
:1008100020F4805088810846808940F00800888153
:100820000846808940F0040088810846008A20F448
:10083000405008820846808940F0200088812520A9
:10084000052203252E461346C3F10708B8F1040F0D
:1008500002D94FF0040801E0C3F10708C44603F1D0
:100860000408B8F1070F02D24FF0000801E0A3F12D
:10087000030847464FF0010808FA0CF8A8F10108F0
:1008800008EA050808FA07F84FF0010909FA07F91C
:10089000A9F1010909EA060948EA090100BF00288F
:1008A00007DA0A07150E2C4A00F00F031B1FD55458
:1008B00003E00A07130E294A135400BF252000F055
:1008C0001F02012191404209920002F1E022C2F888
:1008D000001100BF1F48808940F400501D498881E5
:1008E000BDE8F0831B48008800F0200080B10120A3
:1008F0001B49087000201B49086016488088C1B257
:10090000194802780078401C174B1870174881541A
:1009100070470AE000BF0F49098801F080010029F3
:10092000F9D010F8011B0B4A918001780029F1D110
:10093000704700BF074A128802F08002002AF9D0EF
:10094000044B98807047000030380240000002409D
:1009500000BD01050010014018ED00E000E400E0DA
:1009600024000020200000201D000020280000207E
:100970004FF0013C50F8042B51F8043B9A4221D12E
:10098000A2EB0C03934313EACC1317D150F8042BBA
:1009900051F8043B9A4215D1A2EB0C03934313EA9E
:1009A000CC130BD150F8042B51F8043B9A4209D1D7
:1009B000A2EB0C03934313EACC13DBD04FF00000FF
:1009C000704700BFD01A01BAB1FA81F101F01801E5
:1009D00022FA01F0CB40C1F12001DBB2C0B2C01A53
:1009E0002CFA01F3D11A914311EAC311E6D17047F1
:1009F000704770477047754600F028F8AE4605000E
:100A00006946534620F00700854618B020B5FFF729
:100A100021FDBDE820404FF000064FF000074FF0E9
:100A200000084FF0000B21F00701AC46ACE8C0090C
:100A3000ACE8C009ACE8C009ACE8C0098D46704715
:100A40000446AFF300802046FFF7E7FB00487047FD
:100A50008C00002001491820ABBEFEE726000200F2
:100A600070474FF04070E1EE100A70478C0A0008A2
:100A70000000002028000000C4010008B40A00089B
:100A800028000020C8060000E0010008007A030AE0
:100A9000000000000000000001020304060708092E
:100AA0000100000000000000000000000000000045
:040AB0000000000042
:040000050800018965
:00000001FF
