:020000040800F2
:1000000080040020AD030008B5030008B703000812
:10001000B9030008BB030008BD030008000000008E
:10002000000000000000000000000000BF03000806
:10003000C103000800000000C3030008C503000856
:10004000C7030008C7030008C7030008C703000868
:10005000C7030008C7030008C7030008C703000858
:10006000C7030008C7030008C7030008C703000848
:10007000C7030008C7030008C7030008C703000838
:10008000C7030008C7030008C7030008C703000828
:10009000C7030008C7030008C7030008C703000818
:1000A000C7030008C7030008C7030008C703000808
:1000B000C7030008C7030008C7030008C7030008F8
:1000C000C7030008C7030008C7030008C7030008E8
:1000D000C7030008D9070008C7030008C7030008C2
:1000E000C7030008C7030008C7030008C7030008C8
:1000F000C7030008C7030008C7030008C7030008B8
:10010000C7030008C7030008C7030008C7030008A7
:10011000C7030008C7030008C7030008C703000897
:10012000C7030008C7030008C7030008C703000887
:10013000C7030008C7030008C7030008C703000877
:10014000C7030008C7030008C7030008C703000867
:10015000C7030008C7030008C7030008C703000857
:10016000C7030008C7030008C7030008C703000847
:10017000C7030008C7030008C7030008C703000837
:10018000C7030008C7030008DFF80CD000F086FBA7
:1001900000480047D1030008800400200CB500206F
:1001A000019000907648006840F4803074490860FF
:1001B00000BF7348006800F4003000900198401CB4
:1001C0000190009818B90198B0F5A04FF1D16C4892
:1001D000006800F4003010B10120009001E0002020
:1001E00000900098012846D165484030006840F0F2
:1001F00080506349403108606248006840F44040E4
:10020000604908605E48083000685D490831086050
:100210000846006840F4004008600846006840F462
:10022000A05008605848091F0860081F006840F087
:100230008070091F086000BF5148006800F000701E
:100240000028F9D040F20570504908604C48083049
:10025000006820F003004A49083108600846006839
:1002600040F00200086000BF45480830006800F018
:100270000C000828F8D10CBD10B54548006840F4C2
:100280007000434908603E48006840F001003C4966
:10029000086000203A4908310860394800683D4943
:1002A0000840374908603C48091D0860081F00687D
:1002B00020F48020091F0860002031490C310860BB
:1002C000FFF76CFF4FF0006031498039086010BDC6
:1002D00070B500200022022300240221284D083599
:1002E0002D6805F00C0020B1042806D0082834D170
:1002F00007E02A4D2A4E356033E02A4D284E3560FE
:100300002FE01F4D2D1D2D68C5F380541C4D2D1D54
:100310002D6805F03F0154B1224DB5FBF1F5184EA3
:10032000361D3668C6F3881605FB06F209E01B4D3C
:10033000B5FBF1F5124E361D3668C6F3881605FB7F
:1003400006F20F4D2D1D2D68C5F301456D1C6B0088
:10035000B2FBF3F5124E356003E0104D104E3560E0
:1003600000BF00BF064D08352D68C5F303150E4EBE
:10037000705D0B4D2D68C540094E356070BD0000A5
:10038000003802400070004008544007003C024022
:1003900088ED00E0FFFFF6FE103000240024F4009A
:1003A0000000002040787D010400002006488047BE
:1003B00006480047FEE7FEE7FEE7FEE7FEE7FEE74A
:1003C000FEE7FEE7FEE7FEE7790200088901000884
:1003D00005200246164B19684FF6FF031940154BCE
:1003E0000B4343EA0221124B196000BF00F0D8F81A
:1003F00000F030F84FF4E13000F042F917E00E4819
:100400000078012813D10DA10E4800F039FA18B96F
:1004100000200D49086007E00CA10A4800F030FAFE
:1004200010B9012008490860002003490870E6E778
:100430000CED00E00000FA05190000206F70656EF9
:10044000000000001C000020A4824242636C6F7315
:10045000650000004848006840F001004649086017
:100460004648006820F00300444908600846C06818
:1004700020F00300C8604048006840F010003E498A
:1004800008603F48006820F47C703D4908600846D9
:10049000C06820F47C70C8607047FF203949097833
:1004A000394A117039490978364A11703849097842
:1004B000491C374A117037490978012945D1364915
:1004C000096801290BD03549096841B13349091F31
:1004D000096821B1314908390968002935D12E4907
:1004E000096819B10121294A117015E02B490968E1
:1004F00019B90221254A11700EE02849091F09681F
:1005000019B90321214A117006E024490839096804
:1005100011B904211D4A11701D49097803292AD1F6
:1005200000211B4A117018490978184A1278914223
:1005300021D114490978154A127891421BD11349E7
:1005400008780021134A117015E01349096891B920
:100550001249096801290ED11049091F09680129AA
:1005600009D10E4908390968012904D1094A1170D5
:100570000021074A117070473038024000000240E5
:100580000010024017000020180000201600002074
:1005900015000020140000200002404210024242D8
:1005A0003548006840F0200033490860334800684F
:1005B00020F44020314908600846006840F480205B
:1005C0000860081D006820F40070091D0860081DFF
:1005D000006820F44020091D0860081D006820F410
:1005E0004020091D08602548006820F44010234978
:1005F00008600846006840F480100860081D006824
:1006000020F48060091D0860081D006820F4401077
:10061000091D0860081D006820F44010091D0860CD
:100620001648006820F44030144908600846006805
:1006300040F480300860081D006820F48070091DB7
:100640000860081D006820F44030091D0860081D7E
:10065000006820F44030091D086008481430006824
:1006600040F4C0600549143108600846006820F471
:10067000807008607047000030380240001402406B
:100680002DE9F04304467548006840F001007349C5
:1006900008607348006820F47010714908600846CB
:1006A000006840F4201008600846406820F400709C
:1006B00048600846806820F4402088600846C0688A
:1006C00020F47010C8600846406A20F47F616448D6
:1006D0004162406A40F4EE61614841625F48143013
:1006E000006840F010005D49143108605D48B0FBBF
:1006F000F4F05D4908810846808920F40040888133
:100700000846808920F4805088810846808940F01E
:10071000080088810846808940F0040088810846E6
:10072000008A20F4405008820846808940F020006A
:1007300088812520052203252E461346C3F107088C
:10074000B8F1040F02D94FF0040801E0C3F1070823
:10075000C44603F10408B8F1070F02D24FF00008B5
:1007600001E0A3F1030847464FF0010808FA0CF82E
:10077000A8F1010808EA050808FA07F84FF001098E
:1007800009FA07F9A9F1010909EA060948EA090184
:1007900000BF002807DA0A07150E344A00F00F03DD
:1007A0001B1FD55403E00A07130E314A135400BF30
:1007B000252000F01F02012191404209920002F120
:1007C000E022C2F8001100BF2748808940F40050A1
:1007D00025498881BDE8F0832349098801F020017B
:1007E00001B321498988C8B20A2813D1214909785F
:1007F000491E214A515C0D290CD101211F4A11705B
:1008000000221C490978491E1B4B5A540021194AE1
:10081000117007E017490A780978491C154B1970BF
:100820001549885470470AE000BF0F49098801F054
:1008300080010029F9D010F8011B0B4A9180017842
:100840000029F1D1704700BF074A128802F08002E8
:10085000002AF9D0044B98807047000030380240DD
:100860000000024000BD01050010014018ED00E04D
:1008700000E400E01A0000201C0000201900002005
:1008800010B5002200E0521C835C8C5CA34201D1B5
:10089000002BF8D1D8B2E1B2401A10BD064C074D7A
:1008A00006E0E06840F0010394E807009847103440
:1008B000AC42F6D3FFF76CFCE00800080009000822
:1008C00002E008C8121F08C1002AFAD17047704719
:1008D000002001E001C1121F002AFBD17047000077
:1008E00000090008000000201C000000C0080008EB
:1008F0001C0900081C00002064040000D008000847
:10090000007A030A00000000000000000102030456
:0C091000060708090100000000000000BC
:040000050800018965
:00000001FF
